:020000000C945E
:1000020097000C9400000C9400000C9400000C94D7
:1000120000000C9400000C9400000C9400000C945E
:1000220000000C9400000C9400000C9400000C944E
:1000320000000C9400000C9400000C9400000C943E
:1000420000000C9400000C9400000C9400000C942E
:1000520000000000A040000080407B2261757468AF
:10006200223A226A72344A5A6244766B504F492DC0
:10007200364337526131355554765A73597349783C
:100082006B5943222C2273736964223A2257414BE3
:10009200414E4441222C2270617373223A226A6FCC
:1000A2006D626C6F656C6974227D007B22766F6C69
:1000B20074616765223A25302E31662C20226375E1
:1000C2007272656E74223A25302E3031662C2022EF
:1000D20073696E79616C223A25302E31667D0D0A84
:1000E2000025302E31662025302E31662025302E17
:1000F20031660A002056202020204972202020202C
:100102002053000080C02D4E414E000001002D4EB4
:10011200414E00494E4600000400600158000200B2
:10012200B60106010100BD010E010000F894EE27A0
:10013200ECBBF1E0FBBFEBBFE5BFF8E1F1BDE1BD18
:100142008DE0A2E0BB27ED938A95E9F780E094E089
:10015200A0E6ED930197E9F7EAE1F1E08591959147
:10016200009761F0A591B59105901590BF01F0013E
:1001720005900D920197E1F7FB01F0CFEFE5EDBF9E
:10018200E4E0EEBFC0E6D1E00C94D500AA93E8818A
:10019200E7B98BE18A95F1F7369A349BFECF349A10
:1001A200E4B1F5B10C94C502E0E0EBBBEABBE8BBFD
:1001B200E7BBE1E0E5BBE4BBE0E0E2BBE1BBE3BF00
:1001C200E2BFECBFEFBDEEBDEDBDECBDE7BDE6BDF0
:1001D200EBBDEABDE9BDE8BDE2BDE5BDE4BDE3BD01
:1001E200E5BFE4BFE9BFEBB9E8E0EAB9E6E8E0BDA4
:1001F200E0E0E0BDE3E3E9B9E0E8E8B9E0E0E0BF70
:10020200E7B9E6E8E6B9E0E0EDB9E6BFA0E189D1F9
:10021200A8E8B3E10E9485070E9485070E9485072E
:100222000E9485070E94DA0828970E949207E0E25E
:10023200EA83E1E4EB83E0E0EC83ED83E4EBEE833D
:10024200E2E4EF83EAE9F9E969E97FE30E949607CC
:10025200A0E09CDF2F01F201A1E1B0E00E94B00A10
:100262000E949F07DF01CB01E0E0F0E06FE274E45F
:100272000E94280AE093A601F093A7016093A801C7
:100282007093A901A091A601B091A7018091A80144
:100292009091A901E6E6F6E66AE971E40E94280A6D
:1002A200A0E0B0E088EC92E40E94DA090E94A40780
:1002B200A091B201B091B3018091B4019091B501C6
:1002C200E0E0F0E068EC72E40E946D0A09F010F4DC
:1002D2000C946D010E94A40788249924E8EEF3E0AF
:1002E200E815F90594F0A1E051DF3F01C614D704E7
:1002F2000CF463016A147B040CF45301A1E00E9424
:10030200AD07F40131964F01E9CFF6010E949F0734
:10031200AAE0B8E280EA9BE30E94DA09E093AE0128
:10032200F093AF016093B0017093B101A0E0B0E02F
:1003320080E290E40E948309DF01CB010E944A0619
:10034200DF01CB01E2E0FBE267E87DE30E94B00758
:10035200A091AA01B091AB018091AC019091AD0145
:10036200E0E0F0E060E470E40E94B007E091AA01EE
:10037200F091AB016091AC017091AD010E949607C2
:10038200A0916001B091610180916201909163013D
:100392000E94BB070E946D0A09F010F40C94DA0166
:1003A200E0E0E0936001E0936101E0936201E09399
:1003B2006301EDEAF0E00E94C0070E942B062E9630
:1003C200E4E6F1E0FA93EA93E3EEF0E00E94C0077C
:1003D2000E94FD056096E5E8F1E0FA93EA93E6EF04
:1003E200F0E0FA93EA9380E00E94FD052496E0E0B3
:1003F200EA93A0E043D0A5E8B1E083D0E0E0EA933D
:10040200A1E03CD0A4E6B1E07CD0A8E8B3E10E9430
:10041200DA08289609CFFFCFAA93E881E07111F09C
:10042200AC9A01C0AC98E881E07211F0AB9A01C0BD
:10043200AB98E881E07411F0AA9A01C0AA98E88109
:10044200E07811F0A99A01C0A99885E08A95F1F7A0
:10045200AD9A8DE08A95F1F7AD988DE08A95F1F726
:100462000C94C502AA93A881D7DFE881E295E883BC
:10047200A881D2DF85E88A95F1F786C0AA93E88140
:10048200F0E0EA54FE4FE081A981AE0FEBDFE98193
:10049200E093BA01E881E093BB0122960895A2E0BD
:1004A200E1DFA3E00E94AD07ACE0DCDFA1E0DADF30
:1004B200A3E00E94AD07E0E0E093BB01E093BA0144
:1004C2000895AA93A881AA3031F0E091BC01A091CD
:1004D200BA01AE1760F0E0E0EA93A091BB01AF5F12
:1004E200A093BB01CBDFA881AA3009F44DC0E091F3
:1004F200BA01EF5FE093BA01AF9AA881B3DFAF9878
:1005020043C0BA93AA931A93A981BA81ED91A983A0
:10051200BA831E2FE03019F0A12FD3DFF5CF188157
:100522003DC0AA93A49AA39AA29AA19AA59AA79A1D
:10053200A69AAD98AF98AE98E881E093BC01E058D6
:10054200E093B801E881E054E093B901A4E10E948C
:10055200AD070E94E2070E94E2070E94E207A0E2C2
:100562005BDF88EC90E00197F1F7A8E27BDFA4E083
:1005720079DFA5E877DFA6E075DF91DF05C0AA93F2
:100582005D9BFECFE881ECB921960895BA93AA93B8
:10059200AA81F5DFA881B9810E94EA07239608950E
:1005A200BA93AA931A930A93AA81BB8112960E94C4
:1005B200170B309729F1AA81BB8114960E94170B61
:1005C2008F01309761F00230E0E01E07C0F0F801C1
:1005D20031978F01AA81BB811496ED93FC93AA8176
:1005E200BB8112960E94EA073197AC81A083AA814F
:1005F200BB810E94170BFF2312F00E94EA0706C07C
:10060200AA81BB81EFEFFFEFED93FC931981088183
:1006120025960895BA93AA9324970E949207E0E838
:10062200EA83EFE3EB830E944D0BEE85FF85EF3FFC
:10063200AFEFFA0749F4E885F985FA93EA93A8E05F
:10064200B1E00E941707B8C0EF3FAFE7FA0749F4DD
:10065200E885F985FA93EA93A9E0B1E00E941707C9
:10066200ABC0AB85A73010F0E6E0EB871B85E12F2E
:100672001150E03019F00E94F007F9CFEC85FD85AA
:100682006E857F850E94470B21F430E00E94F007BF
:100692002EC03B850E94FC0709F010F40C945C0309
:1006A2000E94F0070E94FC0728F00E9407080E949F
:1006B2000C08F8CF0DC00E94FC0740F40E94070806
:1006C2000E9418080E941C083150F5CF0E94F007C2
:1006D200EC85FD856E857F850E9421080E941C089D
:1006E2000E94FC0720F00E9407080E940C0810E0FC
:1006F200EB85E117A8F1AC81BD818E819F810E94BB
:1007020028080E942108DF01CB010E946E07EC83BA
:10071200FD836E837F830E9407080E94280A0E943D
:1007220017090E2F0E942F080E943608FF276627FE
:1007320077270E945009AC81BD818E819F810E94E2
:10074200DA090E9407080E943B080E941C08E12F58
:100752001F5FE03069F60E942F08EEE2EC93C8CFEB
:100762000E9440083197AA85A08330302CF431953D
:10077200A885B985EDE203C0A885B985EBE2EC93C3
:100782000E9440080E9440083197BF01A32FEAE06F
:100792000E94C30AE05DDB01EC930E94400831979E
:1007A200BF01A32FEAE00E94ED0AE05DDB01EC93BA
:1007B200A885B985E0E0EC930E94540B60960895F9
:1007C200BA93AA93EF9761970E944B0B10E0FE0138
:1007D200E85AFF4F0190F081E02DE887F987FE018A
:1007E200EA5AFF4F0190F081E02DEE83FF83AE8144
:1007F200BF81E0E0F0E0ED93FC93DE01A45ABF4F2D
:100802000E94EA073197E4912E2FE03011F40C9404
:10081200F405E12FE03039F4253211F411E002C081
:100822000E944608DFC1E130C1F4253219F40E946A
:100832004608D7C112E0E0E0ED8B00E02D3211F462
:1008420001E0D0C12B3219F4EBE2ED8BCBC12032A7
:1008520019F4E0E2ED8BC6C102C0E23039F450E097
:1008620013E0203311F40068BDC102C0E33091F4FB
:10087200203310F02A3308F007C0AAE05A9F502D07
:10088200E22FE0535E0FAEC140E02E3211F414E0CD
:10089200A9C10FC0E43099F4203310F02A3308F0D4
:1008A20008C00062AAE04A9F402DE22FE0534E0F9B
:1008B20099C12C3619F4026015E094C104C0E530E8
:1008C20011F00C94F305E22FE33659F40E944D081F
:1008D2000E9454080E944D08A481AA930E945B08BA
:1008E20080C1E53411F0E53609F404C0E63611F0B2
:1008F2000C94C104FE017696EE87FF870E94610880
:100902000E941B0B0E9468080E946D08AD85AA23F5
:1009120022F0AD89AB3249F017C00E946F080E94E5
:10092200E4080E946808EDE2ED8B07FF05C0ED893F
:10093200EA930E945B0808C0EE85FF853196EE8738
:10094200FF873197AD89A08305FF46E0263651F433
:100952000E946F080E94300B4A93AB89BC890E94A7
:10096200520609C00E946F080E94300B4A932A93D4
:10097200AC89BD894FDEFE0176960E9474081EC0C6
:10098200E33739F40E946D080E947C080E947408C3
:100992000EC0E037C1F40E946D080E947C08EE8709
:1009A200FF87AE85BF850E9430071E2F08600F7734
:1009B200403011F0411708F001C0142F40E0E0E090
:1009C200EC8B30E06EC0E43611F0E93611F40460CD
:1009D20002C0E537A1F4EAE0EC8B01FF08C0E0E0D9
:1009E200FAEC6AE97BE30E9481081AE023C0E0E1A5
:1009F200F7E260E070E00E94810815E01BC0E83574
:100A020011F4086004C0E83711F00C94F205E0E13B
:100A1200EC8B01FF08C0E0E0F0E060E070E10E94D2
:100A2200810818E007C0E0E0F0E160E070E00E94B9
:100A3200810814E0403011F00F7701C041E001FF5E
:100A420008C00E946D080E94610814960E941B0B48
:100A52000FC002FF07C00E946D080E947C080E941E
:100A6200A30A06C00E946D080E947C0866277727A9
:100A7200EA87FB876C877D8702FF12C0AD85AA23B8
:100A820042F40E946F080E94950A0E946808EDE2F3
:100A9200ED8BED89E03019F01F5F4F5F01C00B7FD6
:100AA200342F00FD14C0151710F4351708F00FC0CD
:100AB20007FF08C002FF04C00B7F2D89115001C03F
:100AC20020E301C020E20E9446085150ECCF1417E7
:100AD20090F4006102FF06C00E94860809F051509E
:100AE20011504150E0E3EA930E945B08503009F054
:100AF20051504150ECCF312FEC89E030B9F4303015
:100B0200A1F003FF06C0EE85FF852591EE87FF87E2
:100B120005C0AE85BF852D91AE87BF870E9446086E
:100B2200503009F051503150EACF51C00E9498081C
:100B32000E94C80A2E2F2A3030F003FF02C0295C1F
:100B420001C0295A01C0205D04FD21C0213360F497
:100B5200A889B9898A899B89A130E0E0BE07E0E0D3
:100B62008E07E0E09E0709F40BC0431740F45317C9
:100B720010F000FF01C010C020E207FF08C020E310
:100B8200006102FF04C00E94860809F051500E94D1
:100B92004608503009F0515031500E9498080E9486
:100BA200F90A0E946808EC89A889B9898A899B890F
:100BB200FF27662777270E94C80A0E948108E889D2
:100BC200F9896A897B890E94470B09F0AFCF00FF40
:100BD20008C0503031F05150E0E2EA930E945B08C5
:100BE200F8CF10E00ACEAE81BF810E94170B0E949F
:100BF200520BEF966F960895FF92F82E26970E9459
:100C02004D0B0E94A108309719F4EFEFFFEF1DC0C2
:100C1200DE0116960E948D0A8D010E94A108EE83C4
:100C2200FF83E0E0E887E987DE011A960E94A808C0
:100C3200E1EDF2E0FA93EA93DE011A96C1DD9F013B
:100C4200AE81BF81E0E0EC93F9010E94540B2A9639
:100C5200FF900895FF92F82E26971A930A93DE01C9
:100C620014960E948D0A8D01E0E0EC83ED83EE8301
:100C7200EF83DE0118960E94A808E7ECF2E0FA93EF
:100C8200EA93DE0118969CDD198108812896FF906F
:100C920008950E94350BE991F991699179917F77D5
:100CA2000895BA93AA9324970E949207E0E0EA83F8
:100CB200EFE3EB831A930A93EB85FC85EF3FAFEFEB
:100CC200FA0739F40E94B108A0E1B1E00E941707C7
:100CD200A9C0EF3FAFE7FA0739F40E94B108A1E1DA
:100CE200B1E00E9417079EC0AC85AA2362F4E98591
:100CF200FA856B857C850E94E4080E94B6080E94F2
:100D0200BB08EDE2EC93A885A73010F0E6E0E88797
:100D12001885E12F1150E03039F00E94C2080E947C
:100D220028080E94C708F5CF0E94CC080E948A09B1
:100D32000E94B60810E0E0E0F0E060E87FE30E9485
:100D4200C7080E94CC080E946D0A88F00E94C2085F
:100D52000E9418080E94C7081F5F173238F00E94CD
:100D6200B108A5E1B1E00E9417075CC0EACF1030DC
:100D720029F40E94BB08E0E3EC9329C0E12F115053
:100D8200E03029F10E94C2080E9428080E9421082E
:100D9200DF01CB010E946E070E94C7080E94CC08A7
:100DA2000E94280A0E9417090E2F0E94BB080E9467
:100DB2003608F0E00E94C2080E949F070E94DA09EA
:100DC2000E94D5080E943B080E94B608D7CFE8854A
:100DD200E03021F10E94BB08EEE2EC93E885E1509D
:100DE200E887EF5FD9F00E94D5080E9418080E9498
:100DF200B608E985FA856B857C850E9417090E2F56
:100E02000E94BB080E943608F0E00E94D5080E94AA
:100E12009F070E943B080E94B608E0CFAE81BF81C7
:100E2200E0E0EC93198108812D960895BA93AA9374
:100E3200E991F991A991B991CD0105900D92002006
:100E4200E1F7FC010895BA93AA93A991B991EE270B
:100E5200FF276D91662311F03196FBCF0895BA9367
:100E6200AA93AA27BB27E991F9910590002011F0D6
:100E72001196FBCFFD0108950E94350B7B816A819B
:100E8200F981E88177FB770F67FD7160972F9E5795
:100E920081F078F0983190F4AA27BB27882708942C
:100EA2008795B795A7959A95D1F7EA23FB236823EF
:100EB20005C0E8947727EE27FF2766276F77769598
:100EC20008F4606877F9A991B99189919991EA1723
:100ED200FB076807790797FB08950E94350B0E946C
:100EE200260B0E943D070E942B0B19F40E94210B36
:100EF20009C0E6F70E94210BA0E0B0E080E89FE382
:100F02000E948309249608950E94DA08ECE5F0E035
:100F1200FA93EA9380E00E942B062296A8EEB3E0B1
:100F22000895E0E0E883E9830895E0936001F09397
:100F32006101609362017093630108950E94A30AA4
:100F42000E9450090895E093B201F093B3016093B7
:100F5200B4017093B5010895B0E00C94DA080E94D0
:100F6200280AE093AA01F093AB016093AC0170935D
:100F7200AD010895E0E0F0E060E271E40895FA93D3
:100F8200EA93E091A601F091A7016091A801709106
:100F9200A9010E94300BE0916001F0916101609122
:100FA2006201709163010E94300BE091B201F091F5
:100FB200B3016091B4017091B5010E94300B8CE0D5
:100FC2000895A0E30E940D0288EC90E00197F1F7EA
:100FD2000895ED91FD913196FE93EE930895AC81C3
:100FE200BD818E819F81C6DF0E94DA09EC83FD8379
:100FF2006E837F830895EC81FD816E817F81AC8554
:10100200BD858E859F850E946D0A0895AC85BD853C
:101012008E859F850895EDECFCEC6CEC7DE30E94DF
:10102200DA09EC87FD876E877F873F5F0895A2DF2D
:101032000E94DA090895EC87FD876E877F870895FD
:10104200A0E0B0E080E09FE30E948A090895EDEC01
:10105200FCEC6CEC7DE30E94DA090895A885B98561
:101062001196A887B98711970895E02FE05DEC9358
:10107200E02F08950E943A0B0E9483090895E885A3
:10108200F9853196E887F98708952A93AF81B88563
:10109200E985FA8509950895FE01E65AFF4F019008
:1010A200F081E02D08953497DE01A65ABF4FED93EB
:1010B200FC930895AF81B885E985FA85099508956D
:1010C200DE01A65ABF4F0D90BC91A02D0895EA876C
:1010D200FB876C877D870895DFDFE5CFEA85FB8597
:1010E2006C857D850895EE87FF87AE85BF850E945A
:1010F20024071E2F0895E4DF14960E94170B08950B
:10110200E88BF98B6A8B7B8B08950B7FED89EA93D1
:10111200DE01A95ABF4F0D90BC91A02DFE01E75AE6
:10112200FF4F0190F081E02D099550300895E88934
:10113200F9896A897B89AA85BB858C859D850895F5
:10114200DE011C960E948D0A0E94170B08950E94D0
:101152008D0A0E94170BFA93EA931A930A93089541
:10116200EE81FF81FA93EA930895E987FA876B8704
:101172007C870895AE81BF811196AE83BF8311979C
:101182000895AA81BB818C819D810895EA83FB83A6
:101192006C837D830895EA81FB816C817D81A985C1
:1011A200BA858B859C850895A985BA858B859C8592
:1011B2000895109639F080ED97E00197F1F7A89520
:1011C2001197C9F7089530976040704009F0705840
:1011D2000895552342F4503811F4E0FF04C03196CB
:1011E200691F791F6BF050E8572711F45F93CFC046
:1011F2005F3F31F0660F000C57956795752F089584
:101202005F9300200AF0CFC0C8C050E8192E152203
:10121200880F991F9527550F879550E8072E0522AD
:10122200660F771F7527550F67950895689401C05B
:10123200E8945F93F2DF703818F07F3F08F4A7C09C
:1012420056E1571BAAF4519558300EF4593030F03C
:10125200EFEFFFEF6FEF7FE777F91AC0772755239C
:10126200B9F0EE0FFF1F661F771F5A95D1F710C016
:101272007727583028F0EF2FF62F672F5850F9CFE5
:10128200552331F076956795F795E7955A95D1F7FD
:1012920000200AF449D15F910895689401C0E8944E
:1012A200309760407040B1F0002426F0772312F4AA
:1012B20000943AD1172E7EE1112032F07A95EE0F8A
:1012C200FF1F661F111CF9CFEF2FF62F612D5F93C1
:1012D2008ADF5F9108954F93AF01FD01DA01AB01FF
:1012E200BC01CA01402D012C142E4F910895EA0F22
:1012F200FB1F681F0895E095F0956095EF5FFF4F23
:101302006F4F08955F9381DF903871F150E8152691
:1013120004C05F937ADF903839F1703821F1572F8A
:10132200591B2BF112F4D7DFFACF583118F0AA2744
:10133200BB278827583028F0AB2FB82F8827585062
:10134200F9CF552329F08695B795A7955A95D9F7E0
:10135200502D512572F0CBDF38F46795F795E7955C
:10136200739513F420C0B7DF3EDF5F910895D8F77D
:10137200FBCFEA1BFB0B680B51F010F40094BBDFB0
:10138200662392F3EE0FFF1F661F7A95CBF7EE27C7
:10139200FF27662777275F910895EFEFFFEF6FE74B
:1013A2007FEF5F910895EFEFFFEF6FE77FE75F91C8
:1013B20008955F932ADF703851F3903841F3012486
:1013C2000894791F23F41CF300203AF3ECCF0F9218
:1013D2001F932F933F934F93112722279927689F9B
:1013E200A0018F9F302D410D591F6B9F300D411D64
:1013F200591F8E9F27D0BF9F25D06A9F23D0BE9FA3
:101402001DD0AF9F1BD0AE9F110D291F391F491F41
:10141200591FE32FF42F652F522F4F913F912F9198
:101422001F910F9066232AF0550FEE1FFF1F661FB4
:1014320002C073954BF2CDDE5F910895100D211D10
:10144200391F02C0200D311D491F591F08955F9396
:10145200DCDE703821F411200AF49FCFA4CF90383B
:1014620009F495CF01240894970B1BF4D4F30020C0
:10147200F3CF792F1F932F933F934F93112411276B
:10148200222733274427552790E2AE17BF07860746
:10149200410730F0AE1BBF0B860B410B089401C015
:1014A2008894551F221F331F111CAA1FBB1F881FA0
:1014B200441F9A9551F7F901612D4F913F912F9158
:1014C2001F91662332F0550FEE1FFF1F661F7A959C
:1014D20043F27FDE5F91089599239AF0772342F0D9
:1014E200971748F029F4AE17BF07860720F031F0AE
:1014F20098948894089598940894089518948894D8
:1015020008957723C2F7971798F3A9F7EA17FB070D
:10151200680788F399F3ECCF0024AF0DB01D08954E
:10152200F195E195F0400895F09560957095E195FB
:10153200FF4F6F4F7F4F0895FE2FFF0FFF0B6F2F4F
:101542007F2F08956F2F660F660B762F0895FA9FEF
:10155200F02DEB9FF00DEA9FE02DF10D089558D08C
:10156200F6DF0EF4DDDF0895002498E0AA0F001CD8
:101572000E1A10F40E0E01C0A1609A95B9F7EA2F67
:10158200A02D089539D0F0DF0EF4E19508953F9330
:101592004F935F93002411244427552730E2AA0F6A
:1015A200BB1F881F991F001C111C441F551F0E1AB8
:1015B2001F0A460B570B28F40E0E1F1E461F571FFD
:1015C20001C0A1603A9559F7FD01BC01D001CA01E1
:1015D2005F914F913F910895E894A7FF02C0A195B2
:1015E2006894E7FDE195C0DFEA2F0EF4E1950895D6
:1015F200CEDFFD01BC010895E894E7FF02C0E1954A
:101602006894A7FF04C0A19500F8039400FA089516
:10161200E894F7FF02C084DF6894B7FF06C0A09584
:10162200B095119600F8039400FA0895ED91FC919B
:1016320011970895ED91FD916D917C911397089505
:10164200E881F9816A817B810895A881B9818A81C3
:101652009B810895E883F9836A837B8308957A9353
:101662006A93FA93EA9308959A938A93BA93AA9300
:101672000895182E862F612D192E972F712D1B2E4E
:10168200BF2FF12D1A2EAE2FE12D08953097604015
:10169200704008955A934A933A932A931A930A935D
:1016A20008955D814C813B812A81198108810895C9
:00000001FF
