:040000000C949600C6
:100004000C9400000C9400000C9400000C9400006C
:100014000C9400000C9400000C9400000C9400005C
:100024000C9400000C9400000C9400000C9400004C
:100034000C9400000C9400000C9400000C9400003C
:100044000C9400000C9400000C9400000C9400002C
:100054000000A040000080407B2261757468223A51
:10006400226A72344A5A6244766B504F492D3643A1
:1000740037526131355554765A73597349786B59EF
:1000840043222C2273736964223A2257414B414E16
:100094004441222C2270617373223A226A6F6D628A
:1000A4006C6F656C6974227D007B22766F6C746161
:1000B4006765223A25302E31662C202263757272D0
:1000C400656E74223A25302E31662C202273696EB7
:1000D40079616C223A25302E31667D0D0A00253077
:1000E4002E31662025302E31662025302E31660AC9
:1000F4000020562020202049722020202020530058
:1001040080C02D4E414E000001002D4E414E00494D
:100114004E4600000400600158000200B6010401CC
:100124000100BD010C010000F894EE27ECBBF1E0E6
:10013400FBBFEBBFE5BFF8E1F1BDE1BD8DE0A2E09F
:10014400BB27ED938A95E9F780E094E0A0E6ED9370
:100154000197E9F7E8E1F1E085919591009761F065
:10016400A591B59105901590BF01F00105900D92F0
:100174000197E1F7FB01F0CFEFE5EDBFE4E0EEBF5F
:10018400C0E6D1E00C94D400AA93E881E7B98BE1EE
:100194008A95F1F7369A349BFECF349AE4B1F5B1DF
:1001A4000C949602E0E0EBBBEABBE8BBE7BBE1E002
:1001B400E5BBE4BBE0E0E2BBE1BBE3BFE2BFECBF15
:1001C400EFBDEEBDEDBDECBDE7BDE6BDEBBDEABDEB
:1001D400E9BDE8BDE2BDE5BDE4BDE3BDE5BFE4BF07
:1001E400E9BFEBB9E8E0EAB9E6E8E0BDE0E0E0BD8C
:1001F400E3E3E9B9E0E8E8B9E0E0E0BFE7B9E6E85D
:10020400E6B9E0E0EDB9E6BFA0E15AD1A8E8B3E170
:100214000E9456070E9456070E94A30828970E942E
:100224006307E0E2EA83E1E4EB83E0E0EC83ED835F
:10023400E4EBEE83E2E4EF83EAE9F9E969E97FE3D9
:100244000E946707A0E0A0DF2F01F201A1E1B0E066
:100254000E94790A0E947007DF01CB01E0E0F0E020
:100264006FE274E40E94F109E093A601F093A70100
:100274006093A8017093A901A091A601B091A70170
:100284008091A8019091A901E6E6F6E66AE971E495
:100294000E94F109A0E0B0E088EC92E40E94A30976
:1002A4000E947507A091B201B091B3018091B4018D
:1002B4009091B501E0E0F0E068EC72E40E94360A47
:1002C40009F010F40C9468010E947507F6010E946D
:1002D4007007AAE0B8E280EA9BE30E94A309E093D6
:1002E400AE01F093AF016093B0017093B101A0E04F
:1002F400B0E080E290E40E944C09DF01CB010E944F
:100304001B06DF01CB01E2E0FBE267E87DE30E942C
:10031400F109E093AA01F093AB016093AC017093EF
:10032400AD010E946707A0916001B09161018091C5
:100334006201909163010E947E070E94360A09F0CF
:1003440010F40C94AE01E0E0E0936001E0936101ED
:10035400E0936201E0936301EDEAF0E00E94830719
:100364000E94FC052E96E4E6F1E0FA93EA93E2EEAD
:10037400F0E00E9483070E94CE056096E5E8F1E074
:10038400FA93EA93E5EFF0E0FA93EA9380E00E94AF
:10039400CE052496E0E0EA93A0E043D0A5E8B1E0DE
:1003A4007FD0E0E0EA93A1E03CD0A4E6B1E078D0CD
:1003B400A8E8B3E10E94A308289630CFFFCFAA9300
:1003C400E881E07111F0AC9A01C0AC98E881E07268
:1003D40011F0AB9A01C0AB98E881E07411F0AA9ACD
:1003E40001C0AA98E881E07811F0A99A01C0A998FF
:1003F40085E08A95F1F7AD9A8DE08A95F1F7AD988D
:100404008DE08A95F1F70C949602AA93A881D7DF20
:10041400E881E295E883A881D2DF85E88A95F1F73F
:1004240083C0AA93E881F0E0EA54FE4FE081A981F9
:10043400AE0FEBDFE981E093BA01E881E093BB0101
:1004440022960895A2E00E94A507ACE0DEDFA1E0B9
:100454000E94A507E0E0E093BB01E093BA01089590
:10046400AA93A881AA3031F0E091BC01A091BA010D
:10047400AE1760F0E0E0EA93A091BB01AF5FA093F8
:10048400BB01CFDFA881AA3009F44EC0E091BA01C4
:10049400EF5FE093BA01AF9AA881B7DFAF9844C089
:1004A400BA93AA931A93A981BA81ED91A983BA83C5
:1004B4001E2FE03019F0A12FD3DFF5CF18813EC0F5
:1004C400AA93A49AA39AA29AA19AA59AA79AA69A39
:1004D400AD98AF98AE98E881E093BC01E058E09302
:1004E400B801E881E054E093B901A4E1B0E00E94CE
:1004F400A3080E94AB070E94AB070E94AB07A0E2CF
:100504005EDF88EC90E00197F1F7A8E27EDFA4E0DB
:100514007CDFA5E87ADFA6E078DF94DF05C0AA9344
:100524005D9BFECFE881ECB921960895BA93AA9316
:10053400AA81F5DFA881B9810E94B30723960895A3
:10054400BA93AA931A930A93AA81BB8112960E9422
:10055400E00A309729F1AA81BB8114960E94E00A2F
:100564008F01309761F00230E0E01E07C0F0F8011F
:1005740031978F01AA81BB811496ED93FC93AA81D4
:10058400BB8112960E94B3073197AC81A083AA81E4
:10059400BB810E94E00AFF2312F00E94B30706C049
:1005A400AA81BB81EFEFFFEFED93FC9319810881E2
:1005B40025960895BA93AA9324970E946307E0E8C6
:1005C400EA83EFE3EB830E94160BEE85FF85EF3F92
:1005D400AFEFFA0749F4E885F985FA93EA93A6E0C0
:1005E400B1E00E94E806B8C0EF3FAFE7FA0749F46C
:1005F400E885F985FA93EA93A7E0B1E00E94E8065A
:10060400ABC0AB85A73010F0E6E0EB871B85E12F8C
:100614001150E03019F00E94B907F9CFEC85FD853F
:100624006E857F850E94100B21F430E00E94B9078B
:100634002EC03B850E94C50709F010F40C942D03CD
:100644000E94B9070E94C50728F00E94D0070E94A3
:10065400D507F8CF0DC00E94C50740F40E94D0070B
:100664000E94E1070E94E5073150F5CF0E94B907C7
:10067400EC85FD856E857F850E94EA070E94E5076B
:100684000E94C50720F00E94D0070E94D50710E001
:10069400EB85E117A8F1AC81BD818E819F810E9419
:1006A400F1070E94EA07DF01CB010E943F07EC83B8
:1006B400FD836E837F830E94D0070E94F1090E940C
:1006C400E0080E2F0E94F8070E94FF07FF27662705
:1006D40077270E941909AC81BD818E819F810E9478
:1006E400A3090E94D0070E9404080E94E507E12F95
:1006F4001F5FE03069F60E94F807EEE2EC93C8CF82
:100704000E9409083197AA85A08330302CF43195D2
:10071400A885B985EDE203C0A885B985EBE2EC9321
:100724000E9409080E9409083197BF01A32FEAE03B
:100734000E948C0AE05DDB01EC930E94090831976A
:10074400BF01A32FEAE00E94B60AE05DDB01EC934F
:10075400A885B985E0E0EC930E941D0B609608958E
:10076400BA93AA93EF9761970E94140B10E0FE01CD
:10077400E85AFF4F0190F081E02DE887F987FE01E8
:10078400EA5AFF4F0190F081E02DEE83FF83AE81A2
:10079400BF81E0E0F0E0ED93FC93DE01A45ABF4F8B
:1007A4000E94B3073197E4912E2FE03011F40C949A
:1007B400C505E12FE03039F4253211F411E002C00F
:1007C4000E940F08DFC1E130C1F4253219F40E9400
:1007D4000F08D7C112E0E0E0ED8B00E02D3211F4F8
:1007E40001E0D0C12B3219F4EBE2ED8BCBC1203206
:1007F40019F4E0E2ED8BC6C102C0E23039F450E0F6
:1008040013E0203311F40068BDC102C0E33091F459
:10081400203310F02A3308F007C0AAE05A9F502D65
:10082400E22FE0535E0FAEC140E02E3211F414E02B
:10083400A9C10FC0E43099F4203310F02A3308F032
:1008440008C00062AAE04A9F402DE22FE0534E0FF9
:1008540099C12C3619F4026015E094C104C0E53046
:1008640011F00C94C405E22FE33659F40E941608E3
:100874000E941D080E941608A481AA930E942408BD
:1008840080C1E53411F0E53609F404C0E63611F010
:100894000C949204FE017696EE87FF870E942A0844
:1008A4000E94E40A0E9431080E943608AD85AA23FA
:1008B40022F0AD89AB3249F017C00E9438080E947B
:1008C400AD080E943108EDE2ED8B07FF05C0ED890C
:1008D400EA930E94240808C0EE85FF853196EE87CE
:1008E400FF873197AD89A08305FF46E0263651F492
:1008F4000E9438080E94F90A4A93AB89BC890E9475
:10090400230609C00E9438080E94F90A4A932A93D0
:10091400AC89BD894FDEFE0176960E943D081EC05B
:10092400E33739F40E9436080E9445080E943D08C6
:100934000EC0E037C1F40E9436080E944508EE87D5
:10094400FF87AE85BF850E9401071E2F08600F77C1
:10095400403011F0411708F001C0142F40E0E0E0EE
:10096400EC8B30E06EC0E43611F0E93611F404602B
:1009740002C0E537A1F4EAE0EC8B01FF08C0E0E037
:10098400FAEC6AE97BE30E944A081AE023C0E0E13A
:10099400F7E260E070E00E944A0815E01BC0E83509
:1009A40011F4086004C0E83711F00C94C305E0E1C9
:1009B400EC8B01FF08C0E0E0F0E060E070E10E9431
:1009C4004A0818E007C0E0E0F0E160E070E00E944F
:1009D4004A0814E0403011F00F7701C041E001FFF4
:1009E40008C00E9436080E942A0814960E94E40A4D
:1009F4000FC002FF07C00E9436080E9445080E94EB
:100A04006C0A06C00E9436080E94450866277727AC
:100A1400EA87FB876C877D8702FF12C0AD85AA2316
:100A240042F40E9438080E945E0A0E943108EDE2F6
:100A3400ED8BED89E03019F01F5F4F5F01C00B7F34
:100A4400342F00FD14C0151710F4351708F00FC02B
:100A540007FF08C002FF04C00B7F2D89115001C09D
:100A640020E301C020E20E940F085150ECCF14177C
:100A740090F4006102FF06C00E944F0809F0515033
:100A840011504150E0E3EA930E942408503009F0E9
:100A940051504150ECCF312FEC89E030B9F4303073
:100AA400A1F003FF06C0EE85FF852591EE87FF8741
:100AB40005C0AE85BF852D91AE87BF870E940F0804
:100AC400503009F051503150EACF51C00E946108B2
:100AD4000E94910A2E2F2A3030F003FF02C0295CB5
:100AE40001C0295A01C0205D04FD21C0213360F4F6
:100AF400A889B9898A899B89A130E0E0BE07E0E032
:100B04008E07E0E09E0709F40BC0431740F4531727
:100B140010F000FF01C010C020E207FF08C020E36E
:100B2400006102FF04C00E944F0809F051500E9466
:100B34000F08503009F0515031500E9461080E9452
:100B4400C20A0E943108EC89A889B9898A899B89DB
:100B5400FF27662777270E94910A0E944A08E8899E
:100B6400F9896A897B890E94100B09F0AFCF00FFD5
:100B740008C0503031F05150E0E2EA930E9424085A
:100B8400F8CF10E00ACEAE81BF810E94E00A0E9435
:100B94001B0BEF966F960895FF92F82E26970E94EE
:100BA400160B0E946A08309719F4EFEFFFEF1DC08F
:100BB400DE0116960E94560A8D010E946A08EE8391
:100BC400FF83E0E0E887E987DE011A960E94710856
:100BD400E2EAF2E0FA93EA93DE011A96C1DD9F019C
:100BE400AE81BF81E0E0EC93F9010E941D0B2A96CF
:100BF400FF900895FF92F82E26971A930A93DE0128
:100C040014960E94560A8D01E0E0EC83ED83EE8396
:100C1400EF83DE0118960E947108E8E9F2E0FA9386
:100C2400EA93DE0118969CDD198108812896FF90CD
:100C340008950E94FE0AE991F991699179917F776B
:100C44000895BA93AA9324970E946307E0E0EA8385
:100C5400EFE3EB831A930A93EB85FC85EF3FAFEF49
:100C6400FA0739F40E947A08AEE0B1E00E94E8067F
:100C7400A9C0EF3FAFE7FA0739F40E947A08AFE062
:100C8400B1E00E94E8069EC0AC85AA2362F4E9851F
:100C9400FA856B857C850E94AD080E947F080E94BE
:100CA4008408EDE2EC93A885A73010F0E6E0E8872D
:100CB4001885E12F1150E03039F00E948B080E9412
:100CC400F1070E949008F5CF0E9495080E945309ED
:100CD4000E947F0810E0E0E0F0E060E87FE30E941B
:100CE40090080E9495080E94360A88F00E948B089A
:100CF4000E94E1070E9490081F5F173238F00E949B
:100D04007A08A3E1B1E00E94E8065CC0EACF1030A3
:100D140029F40E948408E0E3EC9329C0E12F1150E8
:100D2400E03029F10E948B080E94F1070E94EA0733
:100D3400DF01CB010E943F070E9490080E949508A2
:100D44000E94F1090E94E0080E2F0E9484080E946C
:100D5400FF07F0E00E948B080E9470070E94A3091D
:100D64000E949E080E9404080E947F08D7CFE8854D
:100D7400E03021F10E948408EEE2EC93E885E15032
:100D8400E887EF5FD9F00E949E080E94E1070E9465
:100D94007F08E985FA856B857C850E94E0080E2F23
:100DA4000E9484080E94FF07F0E00E949E080E94AF
:100DB40070070E9404080E947F08E0CFAE81BF81C3
:100DC400E0E0EC93198108812D960895BA93AA93D3
:100DD400E991F991A991B991CD0105900D92002065
:100DE400E1F7FC010895BA93AA93A991B991EE276A
:100DF400FF276D91662311F03196FBCF0895BA93C6
:100E0400AA93AA27BB27E991F9910590002011F034
:100E14001196FBCFFD0108950E94FE0A7B816A8131
:100E2400F981E88177FB770F67FD7160972F9E57F3
:100E340081F078F0983190F4AA27BB27882708948A
:100E44008795B795A7959A95D1F7EA23FB2368234D
:100E540005C0E8947727EE27FF2766276F777695F6
:100E640008F4606877F9A991B99189919991EA1781
:100E7400FB076807790797FB08950E94FE0A0E9402
:100E8400EF0A0E940E070E94F40A19F40E94EA0A6B
:100E940009C0E6F70E94EA0AA0E0B0E080E89FE318
:100EA4000E944C09249608950E94A308ECE5F0E002
:100EB400FA93EA9380E00E94FC052296A8EEB3E040
:100EC4000895E0E0E883E9830895E0936001F093F6
:100ED4006101609362017093630108950E946C0A3A
:100EE4000E9419090895E093B201F093B30160934D
:100EF400B4017093B5010895E0E0F0E060E271E4BC
:100F04000895FA93EA93E091A601F091A701609104
:100F1400A8017091A9010E94F90AE0916001F09181
:100F2400610160916201709163010E94F90AE0918C
:100F3400B201F091B3016091B4017091B5010E94C6
:100F4400F90A8CE008950E940702A3E0B0E00C9433
:100F5400A308A0E30E94E10188EC90E00197F1F777
:100F64000895ED91FD913196FE93EE930895AC8131
:100F7400BD818E819F81C0DF0E94A309EC83FD8324
:100F84006E837F830895EC81FD816E817F81AC85C2
:100F9400BD858E859F850E94360A0895AC85BD85E2
:100FA4008E859F850895EDECFCEC6CEC7DE30E944E
:100FB400A309EC87FD876E877F873F5F08959CDFD9
:100FC4000E94A3090895EC87FD876E877F870895A3
:100FD400A0E0B0E080E09FE30E9453090895EDECA7
:100FE400FCEC6CEC7DE30E94A3090895A885B98507
:100FF4001196A887B98711970895E02FE05DEC93C7
:10100400E02F08950E94030B0E944C090895E8857F
:10101400F9853196E887F98708952A93AF81B885D1
:10102400E985FA8509950895FE01E65AFF4F019076
:10103400F081E02D08953497DE01A65ABF4FED9359
:10104400FC930895AF81B885E985FA8509950895DB
:10105400DE01A65ABF4F0D90BC91A02D0895EA87DA
:10106400FB876C877D870895DFDFE5CFEA85FB8505
:101074006C857D850895EE87FF87AE85BF850E94C8
:10108400F5061E2F0895E4DF14960E94E00A0895E1
:10109400E88BF98B6A8B7B8B08950B7FED89EA9340
:1010A400DE01A95ABF4F0D90BC91A02DFE01E75A55
:1010B400FF4F0190F081E02D099550300895E889A3
:1010C400F9896A897B89AA85BB858C859D85089564
:1010D400DE011C960E94560A0E94E00A08950E94AE
:1010E400560A0E94E00AFA93EA931A930A9308951F
:1010F400EE81FF81FA93EA930895E987FA876B8773
:101104007C870895AE81BF811196AE83BF8311970A
:101114000895AA81BB818C819D810895EA83FB8314
:101124006C837D830895EA81FB816C817D81A9852F
:10113400BA858B859C850895A985BA858B859C8500
:101144000895109639F080ED97E00197F1F7A8958E
:101154001197C9F7089530976040704009F07058AE
:101164000895552342F4503811F4E0FF04C0319639
:10117400691F791F6BF050E8572711F45F93CFC0B4
:101184005F3F31F0660F000C57956795752F0895F2
:101194005F9300200AF0CFC0C8C050E8192E152272
:1011A400880F991F9527550F879550E8072E05221C
:1011B400660F771F7527550F67950895689401C0CA
:1011C400E8945F93F2DF703818F07F3F08F4A7C00B
:1011D40056E1571BAAF4519558300EF4593030F0AB
:1011E400EFEFFFEF6FEF7FE777F91AC0772755230B
:1011F400B9F0EE0FFF1F661F771F5A95D1F710C085
:101204007727583028F0EF2FF62F672F5850F9CF53
:10121400552331F076956795F795E7955A95D1F76B
:1012240000200AF449D15F910895689401C0E894BC
:10123400309760407040B1F0002426F0772312F418
:1012440000943AD1172E7EE1112032F07A95EE0FF8
:10125400FF1F661F111CF9CFEF2FF62F612D5F932F
:101264008ADF5F9108954F93AF01FD01DA01AB016D
:10127400BC01CA01402D012C142E4F910895EA0F90
:10128400FB1F681F0895E095F0956095EF5FFF4F91
:101294006F4F08955F9381DF903871F150E8152600
:1012A40004C05F937ADF903839F1703821F1572FF9
:1012B400591B2BF112F4D7DFFACF583118F0AA27B3
:1012C400BB278827583028F0AB2FB82F88275850D1
:1012D400F9CF552329F08695B795A7955A95D9F74F
:1012E400502D512572F0CBDF38F46795F795E795CB
:1012F400739513F420C0B7DF3EDF5F910895D8F7EC
:10130400FBCFEA1BFB0B680B51F010F40094BBDF1E
:10131400662392F3EE0FFF1F661F7A95CBF7EE2735
:10132400FF27662777275F910895EFEFFFEF6FE7B9
:101334007FEF5F910895EFEFFFEF6FE77FE75F9136
:1013440008955F932ADF703851F3903841F30124F4
:101354000894791F23F41CF300203AF3ECCF0F9286
:101364001F932F933F934F93112722279927689F09
:10137400A0018F9F302D410D591F6B9F300D411DD2
:10138400591F8E9F27D0BF9F25D06A9F23D0BE9F11
:101394001DD0AF9F1BD0AE9F110D291F391F491FB0
:1013A400591FE32FF42F652F522F4F913F912F9107
:1013B4001F910F9066232AF0550FEE1FFF1F661F23
:1013C40002C073954BF2CDDE5F910895100D211D7F
:1013D400391F02C0200D311D491F591F08955F9305
:1013E400DCDE703821F411200AF49FCFA4CF9038AA
:1013F40009F495CF01240894970B1BF4D4F300202F
:10140400F3CF792F1F932F933F934F9311241127D9
:10141400222733274427552790E2AE17BF078607B4
:10142400410730F0AE1BBF0B860B410B089401C083
:101434008894551F221F331F111CAA1FBB1F881F0E
:10144400441F9A9551F7F901612D4F913F912F91C6
:101454001F91662332F0550FEE1FFF1F661F7A950A
:1014640043F27FDE5F91089599239AF0772342F047
:10147400971748F029F4AE17BF07860720F031F01C
:101484009894889408959894089408951894889446
:1014940008957723C2F7971798F3A9F7EA17FB077C
:1014A400680788F399F3ECCF0024AF0DB01D0895BD
:1014B400F195E195F0400895F09560957095E1956A
:1014C400FF4F6F4F7F4F0895FE2FFF0FFF0B6F2FBE
:1014D4007F2F08956F2F660F660B762F0895FA9F5E
:1014E400F02DEB9FF00DEA9FE02DF10D089558D0FB
:1014F400F6DF0EF4DDDF0895002498E0AA0F001C47
:101504000E1A10F40E0E01C0A1609A95B9F7EA2FD5
:10151400A02D089539D0F0DF0EF4E19508953F939E
:101524004F935F93002411244427552730E2AA0FD8
:10153400BB1F881F991F001C111C441F551F0E1A26
:101544001F0A460B570B28F40E0E1F1E461F571F6B
:1015540001C0A1603A9559F7FD01BC01D001CA014F
:101564005F914F913F910895E894A7FF02C0A19520
:101574006894E7FDE195C0DFEA2F0EF4E195089544
:10158400CEDFFD01BC010895E894E7FF02C0E195B8
:101594006894A7FF04C0A19500F8039400FA089585
:1015A400E894F7FF02C084DF6894B7FF06C0A095F3
:1015B400B095119600F8039400FA0895ED91FC910A
:1015C40011970895ED91FD916D917C911397089574
:1015D400E881F9816A817B810895A881B9818A8132
:1015E4009B810895E883F9836A837B8308957A93C2
:1015F4006A93FA93EA9308959A938A93BA93AA936F
:101604000895182E862F612D192E972F712D1B2EBC
:10161400BF2FF12D1A2EAE2FE12D08953097604083
:10162400704008955A934A933A932A931A930A93CB
:1016340008955D814C813B812A8119810881089537
:00000001FF
